{
  "_format": "hh-sol-artifact-1",
  "contractName": "Create",
  "sourceName": "contracts/VotingContract.sol",
  "abi": [
    {
      "inputs": [],
      "stateMutability": "nonpayable",
      "type": "constructor"
    },
    {
      "anonymous": false,
      "inputs": [
        {
          "indexed": true,
          "internalType": "uint256",
          "name": "candidateId",
          "type": "uint256"
        },
        {
          "indexed": false,
          "internalType": "string",
          "name": "age",
          "type": "string"
        },
        {
          "indexed": false,
          "internalType": "string",
          "name": "name",
          "type": "string"
        },
        {
          "indexed": false,
          "internalType": "string",
          "name": "image",
          "type": "string"
        },
        {
          "indexed": false,
          "internalType": "uint256",
          "name": "voteCount",
          "type": "uint256"
        },
        {
          "indexed": false,
          "internalType": "address",
          "name": "_address",
          "type": "address"
        },
        {
          "indexed": false,
          "internalType": "string",
          "name": "ipfs",
          "type": "string"
        }
      ],
      "name": "CreateCandidate",
      "type": "event"
    },
    {
      "anonymous": false,
      "inputs": [
        {
          "indexed": true,
          "internalType": "uint256",
          "name": "voter_Id",
          "type": "uint256"
        },
        {
          "indexed": false,
          "internalType": "string",
          "name": "voter_name",
          "type": "string"
        },
        {
          "indexed": false,
          "internalType": "string",
          "name": "voter_image",
          "type": "string"
        },
        {
          "indexed": false,
          "internalType": "uint256",
          "name": "voter_allowed",
          "type": "uint256"
        },
        {
          "indexed": false,
          "internalType": "address",
          "name": "voter_address",
          "type": "address"
        },
        {
          "indexed": false,
          "internalType": "bool",
          "name": "voter_voted",
          "type": "bool"
        },
        {
          "indexed": false,
          "internalType": "uint256",
          "name": "voter_vote",
          "type": "uint256"
        },
        {
          "indexed": false,
          "internalType": "string",
          "name": "voter_ipfs",
          "type": "string"
        }
      ],
      "name": "VoterCreated",
      "type": "event"
    },
    {
      "inputs": [],
      "name": "_candidateId",
      "outputs": [
        {
          "internalType": "uint256",
          "name": "_value",
          "type": "uint256"
        }
      ],
      "stateMutability": "view",
      "type": "function"
    },
    {
      "inputs": [],
      "name": "_voterId",
      "outputs": [
        {
          "internalType": "uint256",
          "name": "_value",
          "type": "uint256"
        }
      ],
      "stateMutability": "view",
      "type": "function"
    },
    {
      "inputs": [
        {
          "internalType": "uint256",
          "name": "",
          "type": "uint256"
        }
      ],
      "name": "candidateAddress",
      "outputs": [
        {
          "internalType": "address",
          "name": "",
          "type": "address"
        }
      ],
      "stateMutability": "view",
      "type": "function"
    },
    {
      "inputs": [
        {
          "internalType": "address",
          "name": "",
          "type": "address"
        }
      ],
      "name": "candidates",
      "outputs": [
        {
          "internalType": "uint256",
          "name": "candidateId",
          "type": "uint256"
        },
        {
          "internalType": "string",
          "name": "age",
          "type": "string"
        },
        {
          "internalType": "string",
          "name": "name",
          "type": "string"
        },
        {
          "internalType": "string",
          "name": "image",
          "type": "string"
        },
        {
          "internalType": "uint256",
          "name": "voteCount",
          "type": "uint256"
        },
        {
          "internalType": "address",
          "name": "_address",
          "type": "address"
        },
        {
          "internalType": "string",
          "name": "ipfs",
          "type": "string"
        }
      ],
      "stateMutability": "view",
      "type": "function"
    },
    {
      "inputs": [],
      "name": "getCandidate",
      "outputs": [
        {
          "internalType": "address[]",
          "name": "",
          "type": "address[]"
        }
      ],
      "stateMutability": "view",
      "type": "function"
    },
    {
      "inputs": [
        {
          "internalType": "address",
          "name": "_address",
          "type": "address"
        }
      ],
      "name": "getCandidateData",
      "outputs": [
        {
          "internalType": "string",
          "name": "",
          "type": "string"
        },
        {
          "internalType": "string",
          "name": "",
          "type": "string"
        },
        {
          "internalType": "uint256",
          "name": "",
          "type": "uint256"
        },
        {
          "internalType": "string",
          "name": "",
          "type": "string"
        },
        {
          "internalType": "uint256",
          "name": "",
          "type": "uint256"
        },
        {
          "internalType": "string",
          "name": "",
          "type": "string"
        },
        {
          "internalType": "address",
          "name": "",
          "type": "address"
        }
      ],
      "stateMutability": "view",
      "type": "function"
    },
    {
      "inputs": [],
      "name": "getCandidateLength",
      "outputs": [
        {
          "internalType": "uint256",
          "name": "",
          "type": "uint256"
        }
      ],
      "stateMutability": "view",
      "type": "function"
    },
    {
      "inputs": [],
      "name": "getVotedVoterList",
      "outputs": [
        {
          "internalType": "address[]",
          "name": "",
          "type": "address[]"
        }
      ],
      "stateMutability": "view",
      "type": "function"
    },
    {
      "inputs": [
        {
          "internalType": "address",
          "name": "_address",
          "type": "address"
        }
      ],
      "name": "getVoterData",
      "outputs": [
        {
          "internalType": "uint256",
          "name": "",
          "type": "uint256"
        },
        {
          "internalType": "string",
          "name": "",
          "type": "string"
        },
        {
          "internalType": "string",
          "name": "",
          "type": "string"
        },
        {
          "internalType": "address",
          "name": "",
          "type": "address"
        },
        {
          "internalType": "string",
          "name": "",
          "type": "string"
        },
        {
          "internalType": "uint256",
          "name": "",
          "type": "uint256"
        },
        {
          "internalType": "bool",
          "name": "",
          "type": "bool"
        }
      ],
      "stateMutability": "view",
      "type": "function"
    },
    {
      "inputs": [],
      "name": "getVoterLength",
      "outputs": [
        {
          "internalType": "uint256",
          "name": "",
          "type": "uint256"
        }
      ],
      "stateMutability": "view",
      "type": "function"
    },
    {
      "inputs": [],
      "name": "getVoterList",
      "outputs": [
        {
          "internalType": "address[]",
          "name": "",
          "type": "address[]"
        }
      ],
      "stateMutability": "view",
      "type": "function"
    },
    {
      "inputs": [
        {
          "internalType": "address",
          "name": "_address",
          "type": "address"
        },
        {
          "internalType": "string",
          "name": "_age",
          "type": "string"
        },
        {
          "internalType": "string",
          "name": "_name",
          "type": "string"
        },
        {
          "internalType": "string",
          "name": "_image",
          "type": "string"
        },
        {
          "internalType": "string",
          "name": "_ipfs",
          "type": "string"
        }
      ],
      "name": "setCandidate",
      "outputs": [],
      "stateMutability": "nonpayable",
      "type": "function"
    },
    {
      "inputs": [
        {
          "internalType": "address",
          "name": "_candidateAddress",
          "type": "address"
        },
        {
          "internalType": "uint256",
          "name": "_candiddateVoterId",
          "type": "uint256"
        }
      ],
      "name": "vote",
      "outputs": [],
      "stateMutability": "nonpayable",
      "type": "function"
    },
    {
      "inputs": [
        {
          "internalType": "uint256",
          "name": "",
          "type": "uint256"
        }
      ],
      "name": "votedVoters",
      "outputs": [
        {
          "internalType": "address",
          "name": "",
          "type": "address"
        }
      ],
      "stateMutability": "view",
      "type": "function"
    },
    {
      "inputs": [
        {
          "internalType": "address",
          "name": "_address",
          "type": "address"
        },
        {
          "internalType": "string",
          "name": "_name",
          "type": "string"
        },
        {
          "internalType": "string",
          "name": "_image",
          "type": "string"
        },
        {
          "internalType": "string",
          "name": "_ipfs",
          "type": "string"
        }
      ],
      "name": "voterRight",
      "outputs": [],
      "stateMutability": "nonpayable",
      "type": "function"
    },
    {
      "inputs": [
        {
          "internalType": "address",
          "name": "",
          "type": "address"
        }
      ],
      "name": "voters",
      "outputs": [
        {
          "internalType": "uint256",
          "name": "voter_Id",
          "type": "uint256"
        },
        {
          "internalType": "string",
          "name": "voter_name",
          "type": "string"
        },
        {
          "internalType": "string",
          "name": "voter_image",
          "type": "string"
        },
        {
          "internalType": "uint256",
          "name": "voter_allowed",
          "type": "uint256"
        },
        {
          "internalType": "address",
          "name": "voter_address",
          "type": "address"
        },
        {
          "internalType": "bool",
          "name": "voter_voted",
          "type": "bool"
        },
        {
          "internalType": "uint256",
          "name": "voter_vote",
          "type": "uint256"
        },
        {
          "internalType": "string",
          "name": "voter_ipfs",
          "type": "string"
        }
      ],
      "stateMutability": "view",
      "type": "function"
    },
    {
      "inputs": [
        {
          "internalType": "uint256",
          "name": "",
          "type": "uint256"
        }
      ],
      "name": "votersAddress",
      "outputs": [
        {
          "internalType": "address",
          "name": "",
          "type": "address"
        }
      ],
      "stateMutability": "view",
      "type": "function"
    },
    {
      "inputs": [],
      "name": "votingOrganizer",
      "outputs": [
        {
          "internalType": "address",
          "name": "",
          "type": "address"
        }
      ],
      "stateMutability": "view",
      "type": "function"
    }
  ],
  "bytecode": "0x608060405234801561001057600080fd5b5033600260006101000a81548173ffffffffffffffffffffffffffffffffffffffff021916908373ffffffffffffffffffffffffffffffffffffffff1602179055506127cf806100616000396000f3fe608060405234801561001057600080fd5b50600436106101165760003560e01c80638ab66a90116100a2578063a738896711610071578063a738896714610334578063b28d92ae14610352578063b9be315214610370578063c91ec7121461038e578063f7522a83146103aa57610116565b80638ab66a90146102735780638e945685146102a95780638fb4cd80146102c7578063a3ec138d146102fd57610116565b806343242daa116100e957806343242daa146101bb5780635cc48aa7146101eb5780635f74bbde1461020957806370218b85146102255780637831ffb31461024357610116565b80630361419e1461011b57806305ad45a4146101375780632a466ac7146101555780633a88251a1461018b575b600080fd5b61013560048036038101906101309190611aea565b6103c8565b005b61013f610640565b60405161014c9190611bbe565b60405180910390f35b61016f600480360381019061016a9190611bd9565b61064d565b6040516101829796959493929190611c94565b60405180910390f35b6101a560048036038101906101a09190611d4b565b610a94565b6040516101b29190611d78565b60405180910390f35b6101d560048036038101906101d09190611d4b565b610ad3565b6040516101e29190611d78565b60405180910390f35b6101f3610b12565b6040516102009190611d78565b60405180910390f35b610223600480360381019061021e9190611d93565b610b38565b005b61022d610cff565b60405161023a9190611e91565b60405180910390f35b61025d60048036038101906102589190611d4b565b610d04565b60405161026a9190611d78565b60405180910390f35b61028d60048036038101906102889190611bd9565b610d43565b6040516102a09796959493929190611eb3565b60405180910390f35b6102b1610fc5565b6040516102be9190611e91565b60405180910390f35b6102e160048036038101906102dc9190611bd9565b611053565b6040516102f49796959493929190611f59565b60405180910390f35b61031760048036038101906103129190611bd9565b61141b565b60405161032b989796959493929190611fdd565b60405180910390f35b61033c611628565b6040516103499190611bbe565b60405180910390f35b61035a611634565b6040516103679190611e91565b60405180910390f35b6103786116c2565b6040516103859190611bbe565b60405180910390f35b6103a860048036038101906103a39190612070565b6116ce565b005b6103b2611909565b6040516103bf9190611bbe565b60405180910390f35b3373ffffffffffffffffffffffffffffffffffffffff16600260009054906101000a900473ffffffffffffffffffffffffffffffffffffffff1673ffffffffffffffffffffffffffffffffffffffff1614610458576040517f08c379a000000000000000000000000000000000000000000000000000000000815260040161044f906121cd565b60405180910390fd5b610462600061190e565b600061046e6000611924565b90506000600760008773ffffffffffffffffffffffffffffffffffffffff1673ffffffffffffffffffffffffffffffffffffffff168152602001908152602001600020905060008160030154146104c457600080fd5b60018160030181905550848160010190816104df91906123f9565b50838160020190816104f191906123f9565b50858160040160006101000a81548173ffffffffffffffffffffffffffffffffffffffff021916908373ffffffffffffffffffffffffffffffffffffffff1602179055508181600001819055506103e8816005018190555060008160040160146101000a81548160ff0219169083151502179055508281600601908161057791906123f9565b506006869080600181540180825580915050600190039060005260206000200160009091909190916101000a81548173ffffffffffffffffffffffffffffffffffffffff021916908373ffffffffffffffffffffffffffffffffffffffff160217905550817fd1b6e6fca62ba9b50fe6d49b3494793853b8ccd7f5a43eab2d73e485ecce1864868684600301548a8660040160149054906101000a900460ff1687600501548a60405161063097969594939291906124cb565b60405180910390a2505050505050565b6000600680549050905090565b60608060006060600060606000600460008973ffffffffffffffffffffffffffffffffffffffff1673ffffffffffffffffffffffffffffffffffffffff168152602001908152602001600020600101600460008a73ffffffffffffffffffffffffffffffffffffffff1673ffffffffffffffffffffffffffffffffffffffff168152602001908152602001600020600201600460008b73ffffffffffffffffffffffffffffffffffffffff1673ffffffffffffffffffffffffffffffffffffffff16815260200190815260200160002060000154600460008c73ffffffffffffffffffffffffffffffffffffffff1673ffffffffffffffffffffffffffffffffffffffff168152602001908152602001600020600301600460008d73ffffffffffffffffffffffffffffffffffffffff1673ffffffffffffffffffffffffffffffffffffffff16815260200190815260200160002060040154600460008e73ffffffffffffffffffffffffffffffffffffffff1673ffffffffffffffffffffffffffffffffffffffff168152602001908152602001600020600601600460008f73ffffffffffffffffffffffffffffffffffffffff1673ffffffffffffffffffffffffffffffffffffffff16815260200190815260200160002060050160009054906101000a900473ffffffffffffffffffffffffffffffffffffffff168680546108579061221c565b80601f01602080910402602001604051908101604052809291908181526020018280546108839061221c565b80156108d05780601f106108a5576101008083540402835291602001916108d0565b820191906000526020600020905b8154815290600101906020018083116108b357829003601f168201915b505050505096508580546108e39061221c565b80601f016020809104026020016040519081016040528092919081815260200182805461090f9061221c565b801561095c5780601f106109315761010080835404028352916020019161095c565b820191906000526020600020905b81548152906001019060200180831161093f57829003601f168201915b5050505050955083805461096f9061221c565b80601f016020809104026020016040519081016040528092919081815260200182805461099b9061221c565b80156109e85780601f106109bd576101008083540402835291602001916109e8565b820191906000526020600020905b8154815290600101906020018083116109cb57829003601f168201915b505050505093508180546109fb9061221c565b80601f0160208091040260200160405190810160405280929190818152602001828054610a279061221c565b8015610a745780601f10610a4957610100808354040283529160200191610a74565b820191906000526020600020905b815481529060010190602001808311610a5757829003601f168201915b505050505091509650965096509650965096509650919395979092949650565b60038181548110610aa457600080fd5b906000526020600020016000915054906101000a900473ffffffffffffffffffffffffffffffffffffffff1681565b60068181548110610ae357600080fd5b906000526020600020016000915054906101000a900473ffffffffffffffffffffffffffffffffffffffff1681565b600260009054906101000a900473ffffffffffffffffffffffffffffffffffffffff1681565b6000600760003373ffffffffffffffffffffffffffffffffffffffff1673ffffffffffffffffffffffffffffffffffffffff16815260200190815260200160002090508060040160149054906101000a900460ff1615610bcd576040517f08c379a0000000000000000000000000000000000000000000000000000000008152600401610bc49061259b565b60405180910390fd5b6000816003015403610c14576040517f08c379a0000000000000000000000000000000000000000000000000000000008152600401610c0b90612607565b60405180910390fd5b60018160040160146101000a81548160ff0219169083151502179055508181600501819055506005339080600181540180825580915050600190039060005260206000200160009091909190916101000a81548173ffffffffffffffffffffffffffffffffffffffff021916908373ffffffffffffffffffffffffffffffffffffffff1602179055508060030154600460008573ffffffffffffffffffffffffffffffffffffffff1673ffffffffffffffffffffffffffffffffffffffff1681526020019081526020016000206004016000828254610cf39190612656565b92505081905550505050565b606090565b60058181548110610d1457600080fd5b906000526020600020016000915054906101000a900473ffffffffffffffffffffffffffffffffffffffff1681565b6004602052806000526040600020600091509050806000015490806001018054610d6c9061221c565b80601f0160208091040260200160405190810160405280929190818152602001828054610d989061221c565b8015610de55780601f10610dba57610100808354040283529160200191610de5565b820191906000526020600020905b815481529060010190602001808311610dc857829003601f168201915b505050505090806002018054610dfa9061221c565b80601f0160208091040260200160405190810160405280929190818152602001828054610e269061221c565b8015610e735780601f10610e4857610100808354040283529160200191610e73565b820191906000526020600020905b815481529060010190602001808311610e5657829003601f168201915b505050505090806003018054610e889061221c565b80601f0160208091040260200160405190810160405280929190818152602001828054610eb49061221c565b8015610f015780601f10610ed657610100808354040283529160200191610f01565b820191906000526020600020905b815481529060010190602001808311610ee457829003601f168201915b5050505050908060040154908060050160009054906101000a900473ffffffffffffffffffffffffffffffffffffffff1690806006018054610f429061221c565b80601f0160208091040260200160405190810160405280929190818152602001828054610f6e9061221c565b8015610fbb5780601f10610f9057610100808354040283529160200191610fbb565b820191906000526020600020905b815481529060010190602001808311610f9e57829003601f168201915b5050505050905087565b6060600580548060200260200160405190810160405280929190818152602001828054801561104957602002820191906000526020600020905b8160009054906101000a900473ffffffffffffffffffffffffffffffffffffffff1673ffffffffffffffffffffffffffffffffffffffff1681526020019060010190808311610fff575b5050505050905090565b600060608060006060600080600760008973ffffffffffffffffffffffffffffffffffffffff1673ffffffffffffffffffffffffffffffffffffffff16815260200190815260200160002060000154600760008a73ffffffffffffffffffffffffffffffffffffffff1673ffffffffffffffffffffffffffffffffffffffff168152602001908152602001600020600101600760008b73ffffffffffffffffffffffffffffffffffffffff1673ffffffffffffffffffffffffffffffffffffffff168152602001908152602001600020600201600760008c73ffffffffffffffffffffffffffffffffffffffff1673ffffffffffffffffffffffffffffffffffffffff16815260200190815260200160002060040160009054906101000a900473ffffffffffffffffffffffffffffffffffffffff16600760008d73ffffffffffffffffffffffffffffffffffffffff1673ffffffffffffffffffffffffffffffffffffffff168152602001908152602001600020600601600760008e73ffffffffffffffffffffffffffffffffffffffff1673ffffffffffffffffffffffffffffffffffffffff16815260200190815260200160002060030154600760008f73ffffffffffffffffffffffffffffffffffffffff1673ffffffffffffffffffffffffffffffffffffffff16815260200190815260200160002060040160149054906101000a900460ff1685805461126a9061221c565b80601f01602080910402602001604051908101604052809291908181526020018280546112969061221c565b80156112e35780601f106112b8576101008083540402835291602001916112e3565b820191906000526020600020905b8154815290600101906020018083116112c657829003601f168201915b505050505095508480546112f69061221c565b80601f01602080910402602001604051908101604052809291908181526020018280546113229061221c565b801561136f5780601f106113445761010080835404028352916020019161136f565b820191906000526020600020905b81548152906001019060200180831161135257829003601f168201915b505050505094508280546113829061221c565b80601f01602080910402602001604051908101604052809291908181526020018280546113ae9061221c565b80156113fb5780601f106113d0576101008083540402835291602001916113fb565b820191906000526020600020905b8154815290600101906020018083116113de57829003601f168201915b505050505092509650965096509650965096509650919395979092949650565b60076020528060005260406000206000915090508060000154908060010180546114449061221c565b80601f01602080910402602001604051908101604052809291908181526020018280546114709061221c565b80156114bd5780601f10611492576101008083540402835291602001916114bd565b820191906000526020600020905b8154815290600101906020018083116114a057829003601f168201915b5050505050908060020180546114d29061221c565b80601f01602080910402602001604051908101604052809291908181526020018280546114fe9061221c565b801561154b5780601f106115205761010080835404028352916020019161154b565b820191906000526020600020905b81548152906001019060200180831161152e57829003601f168201915b5050505050908060030154908060040160009054906101000a900473ffffffffffffffffffffffffffffffffffffffff16908060040160149054906101000a900460ff16908060050154908060060180546115a59061221c565b80601f01602080910402602001604051908101604052809291908181526020018280546115d19061221c565b801561161e5780601f106115f35761010080835404028352916020019161161e565b820191906000526020600020905b81548152906001019060200180831161160157829003601f168201915b5050505050905088565b60018060000154905081565b606060068054806020026020016040519081016040528092919081815260200182805480156116b857602002820191906000526020600020905b8160009054906101000a900473ffffffffffffffffffffffffffffffffffffffff1673ffffffffffffffffffffffffffffffffffffffff168152602001906001019080831161166e575b5050505050905090565b60008060000154905081565b3373ffffffffffffffffffffffffffffffffffffffff16600260009054906101000a900473ffffffffffffffffffffffffffffffffffffffff1673ffffffffffffffffffffffffffffffffffffffff161461175e576040517f08c379a0000000000000000000000000000000000000000000000000000000008152600401611755906126fc565b60405180910390fd5b611768600161190e565b60006117746001611924565b90506000600460008873ffffffffffffffffffffffffffffffffffffffff1673ffffffffffffffffffffffffffffffffffffffff1681526020019081526020016000209050858160010190816117ca91906123f9565b50848160020190816117dc91906123f9565b50818160000181905550838160030190816117f791906123f9565b5060008160040181905550868160050160006101000a81548173ffffffffffffffffffffffffffffffffffffffff021916908373ffffffffffffffffffffffffffffffffffffffff1602179055508281600601908161185691906123f9565b506003879080600181540180825580915050600190039060005260206000200160009091909190916101000a81548173ffffffffffffffffffffffffffffffffffffffff021916908373ffffffffffffffffffffffffffffffffffffffff160217905550817f76a7e5a62b5edbdf0c1478a9de193d486797d723e48b8a9eab38b4bc800c753087878785600401548c896040516118f89695949392919061271c565b60405180910390a250505050505050565b600090565b6001816000016000828254019250508190555050565b600081600001549050919050565b6000604051905090565b600080fd5b600080fd5b600073ffffffffffffffffffffffffffffffffffffffff82169050919050565b600061197182611946565b9050919050565b61198181611966565b811461198c57600080fd5b50565b60008135905061199e81611978565b92915050565b600080fd5b600080fd5b6000601f19601f8301169050919050565b7f4e487b7100000000000000000000000000000000000000000000000000000000600052604160045260246000fd5b6119f7826119ae565b810181811067ffffffffffffffff82111715611a1657611a156119bf565b5b80604052505050565b6000611a29611932565b9050611a3582826119ee565b919050565b600067ffffffffffffffff821115611a5557611a546119bf565b5b611a5e826119ae565b9050602081019050919050565b82818337600083830152505050565b6000611a8d611a8884611a3a565b611a1f565b905082815260208101848484011115611aa957611aa86119a9565b5b611ab4848285611a6b565b509392505050565b600082601f830112611ad157611ad06119a4565b5b8135611ae1848260208601611a7a565b91505092915050565b60008060008060808587031215611b0457611b0361193c565b5b6000611b128782880161198f565b945050602085013567ffffffffffffffff811115611b3357611b32611941565b5b611b3f87828801611abc565b935050604085013567ffffffffffffffff811115611b6057611b5f611941565b5b611b6c87828801611abc565b925050606085013567ffffffffffffffff811115611b8d57611b8c611941565b5b611b9987828801611abc565b91505092959194509250565b6000819050919050565b611bb881611ba5565b82525050565b6000602082019050611bd36000830184611baf565b92915050565b600060208284031215611bef57611bee61193c565b5b6000611bfd8482850161198f565b91505092915050565b600081519050919050565b600082825260208201905092915050565b60005b83811015611c40578082015181840152602081019050611c25565b60008484015250505050565b6000611c5782611c06565b611c618185611c11565b9350611c71818560208601611c22565b611c7a816119ae565b840191505092915050565b611c8e81611966565b82525050565b600060e0820190508181036000830152611cae818a611c4c565b90508181036020830152611cc28189611c4c565b9050611cd16040830188611baf565b8181036060830152611ce38187611c4c565b9050611cf26080830186611baf565b81810360a0830152611d048185611c4c565b9050611d1360c0830184611c85565b98975050505050505050565b611d2881611ba5565b8114611d3357600080fd5b50565b600081359050611d4581611d1f565b92915050565b600060208284031215611d6157611d6061193c565b5b6000611d6f84828501611d36565b91505092915050565b6000602082019050611d8d6000830184611c85565b92915050565b60008060408385031215611daa57611da961193c565b5b6000611db88582860161198f565b9250506020611dc985828601611d36565b9150509250929050565b600081519050919050565b600082825260208201905092915050565b6000819050602082019050919050565b611e0881611966565b82525050565b6000611e1a8383611dff565b60208301905092915050565b6000602082019050919050565b6000611e3e82611dd3565b611e488185611dde565b9350611e5383611def565b8060005b83811015611e84578151611e6b8882611e0e565b9750611e7683611e26565b925050600181019050611e57565b5085935050505092915050565b60006020820190508181036000830152611eab8184611e33565b905092915050565b600060e082019050611ec8600083018a611baf565b8181036020830152611eda8189611c4c565b90508181036040830152611eee8188611c4c565b90508181036060830152611f028187611c4c565b9050611f116080830186611baf565b611f1e60a0830185611c85565b81810360c0830152611f308184611c4c565b905098975050505050505050565b60008115159050919050565b611f5381611f3e565b82525050565b600060e082019050611f6e600083018a611baf565b8181036020830152611f808189611c4c565b90508181036040830152611f948188611c4c565b9050611fa36060830187611c85565b8181036080830152611fb58186611c4c565b9050611fc460a0830185611baf565b611fd160c0830184611f4a565b98975050505050505050565b600061010082019050611ff3600083018b611baf565b8181036020830152612005818a611c4c565b905081810360408301526120198189611c4c565b90506120286060830188611baf565b6120356080830187611c85565b61204260a0830186611f4a565b61204f60c0830185611baf565b81810360e08301526120618184611c4c565b90509998505050505050505050565b600080600080600060a0868803121561208c5761208b61193c565b5b600061209a8882890161198f565b955050602086013567ffffffffffffffff8111156120bb576120ba611941565b5b6120c788828901611abc565b945050604086013567ffffffffffffffff8111156120e8576120e7611941565b5b6120f488828901611abc565b935050606086013567ffffffffffffffff81111561211557612114611941565b5b61212188828901611abc565b925050608086013567ffffffffffffffff81111561214257612141611941565b5b61214e88828901611abc565b9150509295509295909350565b7f4f6e6c79206f7267616e697a65722061726520616c6c6f77656420746f20637260008201527f6561746500000000000000000000000000000000000000000000000000000000602082015250565b60006121b7602483611c11565b91506121c28261215b565b604082019050919050565b600060208201905081810360008301526121e6816121aa565b9050919050565b7f4e487b7100000000000000000000000000000000000000000000000000000000600052602260045260246000fd5b6000600282049050600182168061223457607f821691505b602082108103612247576122466121ed565b5b50919050565b60008190508160005260206000209050919050565b60006020601f8301049050919050565b600082821b905092915050565b6000600883026122af7fffffffffffffffffffffffffffffffffffffffffffffffffffffffffffffffff82612272565b6122b98683612272565b95508019841693508086168417925050509392505050565b6000819050919050565b60006122f66122f16122ec84611ba5565b6122d1565b611ba5565b9050919050565b6000819050919050565b612310836122db565b61232461231c826122fd565b84845461227f565b825550505050565b600090565b61233961232c565b612344818484612307565b505050565b5b818110156123685761235d600082612331565b60018101905061234a565b5050565b601f8211156123ad5761237e8161224d565b61238784612262565b81016020851015612396578190505b6123aa6123a285612262565b830182612349565b50505b505050565b600082821c905092915050565b60006123d0600019846008026123b2565b1980831691505092915050565b60006123e983836123bf565b9150826002028217905092915050565b61240282611c06565b67ffffffffffffffff81111561241b5761241a6119bf565b5b612425825461221c565b61243082828561236c565b600060209050601f8311600181146124635760008415612451578287015190505b61245b85826123dd565b8655506124c3565b601f1984166124718661224d565b60005b8281101561249957848901518255600182019150602085019450602081019050612474565b868310156124b657848901516124b2601f8916826123bf565b8355505b6001600288020188555050505b505050505050565b600060e08201905081810360008301526124e5818a611c4c565b905081810360208301526124f98189611c4c565b90506125086040830188611baf565b6125156060830187611c85565b6125226080830186611f4a565b61252f60a0830185611baf565b81810360c08301526125418184611c4c565b905098975050505050505050565b7f596f75206861766520616c726561647920766f74656400000000000000000000600082015250565b6000612585601683611c11565b91506125908261254f565b602082019050919050565b600060208201905081810360008301526125b481612578565b9050919050565b7f596f752068617665206e6f20726967687420746f20766f746500000000000000600082015250565b60006125f1601983611c11565b91506125fc826125bb565b602082019050919050565b60006020820190508181036000830152612620816125e4565b9050919050565b7f4e487b7100000000000000000000000000000000000000000000000000000000600052601160045260246000fd5b600061266182611ba5565b915061266c83611ba5565b925082820190508082111561268457612683612627565b5b92915050565b7f4f6e6c7920616c6c6f776564206f7261676e697a6572732063616e206372656160008201527f7465207468652063616e64696461746520000000000000000000000000000000602082015250565b60006126e6603183611c11565b91506126f18261268a565b604082019050919050565b60006020820190508181036000830152612715816126d9565b9050919050565b600060c08201905081810360008301526127368189611c4c565b9050818103602083015261274a8188611c4c565b9050818103604083015261275e8187611c4c565b905061276d6060830186611baf565b61277a6080830185611c85565b81810360a083015261278c8184611c4c565b905097965050505050505056fea2646970667358221220f81ea262539509f9b9e76db7ac6a7c35936d937914f8aa6946777fa582d721c164736f6c63430008130033",
  "linkReferences": {},
  "deployedLinkReferences": {}
}